{
  "_format": "hh-sol-artifact-1",
  "contractName": "ProductSale",
  "sourceName": "contracts/ProductSale.sol",
  "abi": [
    {
      "anonymous": false,
      "inputs": [
        {
          "indexed": true,
          "internalType": "uint256",
          "name": "id",
          "type": "uint256"
        },
        {
          "indexed": false,
          "internalType": "string",
          "name": "name",
          "type": "string"
        },
        {
          "indexed": false,
          "internalType": "uint256",
          "name": "price",
          "type": "uint256"
        },
        {
          "indexed": false,
          "internalType": "uint256",
          "name": "quantity",
          "type": "uint256"
        }
      ],
      "name": "ProductListed",
      "type": "event"
    },
    {
      "anonymous": false,
      "inputs": [
        {
          "indexed": true,
          "internalType": "uint256",
          "name": "id",
          "type": "uint256"
        },
        {
          "indexed": false,
          "internalType": "address",
          "name": "buyer",
          "type": "address"
        },
        {
          "indexed": false,
          "internalType": "uint256",
          "name": "quantity",
          "type": "uint256"
        },
        {
          "indexed": false,
          "internalType": "uint256",
          "name": "totalPrice",
          "type": "uint256"
        }
      ],
      "name": "ProductSold",
      "type": "event"
    },
    {
      "anonymous": false,
      "inputs": [
        {
          "indexed": true,
          "internalType": "uint256",
          "name": "id",
          "type": "uint256"
        },
        {
          "indexed": false,
          "internalType": "uint256",
          "name": "newQuantity",
          "type": "uint256"
        },
        {
          "indexed": false,
          "internalType": "uint256",
          "name": "newPrice",
          "type": "uint256"
        }
      ],
      "name": "ProductUpdated",
      "type": "event"
    },
    {
      "inputs": [],
      "name": "getActiveProductCount",
      "outputs": [
        {
          "internalType": "uint256",
          "name": "count",
          "type": "uint256"
        }
      ],
      "stateMutability": "view",
      "type": "function"
    },
    {
      "inputs": [
        {
          "internalType": "uint256",
          "name": "_productId",
          "type": "uint256"
        }
      ],
      "name": "getProduct",
      "outputs": [
        {
          "internalType": "string",
          "name": "name",
          "type": "string"
        },
        {
          "internalType": "string",
          "name": "description",
          "type": "string"
        },
        {
          "internalType": "uint256",
          "name": "price",
          "type": "uint256"
        },
        {
          "internalType": "uint256",
          "name": "quantity",
          "type": "uint256"
        },
        {
          "internalType": "address",
          "name": "seller",
          "type": "address"
        },
        {
          "internalType": "bool",
          "name": "active",
          "type": "bool"
        }
      ],
      "stateMutability": "view",
      "type": "function"
    },
    {
      "inputs": [
        {
          "internalType": "string",
          "name": "_name",
          "type": "string"
        },
        {
          "internalType": "string",
          "name": "_description",
          "type": "string"
        },
        {
          "internalType": "uint256",
          "name": "_price",
          "type": "uint256"
        },
        {
          "internalType": "uint256",
          "name": "_quantity",
          "type": "uint256"
        }
      ],
      "name": "listProduct",
      "outputs": [
        {
          "internalType": "uint256",
          "name": "",
          "type": "uint256"
        }
      ],
      "stateMutability": "nonpayable",
      "type": "function"
    },
    {
      "inputs": [],
      "name": "productCount",
      "outputs": [
        {
          "internalType": "uint256",
          "name": "",
          "type": "uint256"
        }
      ],
      "stateMutability": "view",
      "type": "function"
    },
    {
      "inputs": [
        {
          "internalType": "uint256",
          "name": "",
          "type": "uint256"
        }
      ],
      "name": "products",
      "outputs": [
        {
          "internalType": "uint256",
          "name": "id",
          "type": "uint256"
        },
        {
          "internalType": "string",
          "name": "name",
          "type": "string"
        },
        {
          "internalType": "string",
          "name": "description",
          "type": "string"
        },
        {
          "internalType": "uint256",
          "name": "price",
          "type": "uint256"
        },
        {
          "internalType": "uint256",
          "name": "quantity",
          "type": "uint256"
        },
        {
          "internalType": "address",
          "name": "seller",
          "type": "address"
        },
        {
          "internalType": "bool",
          "name": "active",
          "type": "bool"
        }
      ],
      "stateMutability": "view",
      "type": "function"
    },
    {
      "inputs": [
        {
          "internalType": "uint256",
          "name": "_productId",
          "type": "uint256"
        },
        {
          "internalType": "uint256",
          "name": "_quantity",
          "type": "uint256"
        }
      ],
      "name": "purchaseProduct",
      "outputs": [],
      "stateMutability": "payable",
      "type": "function"
    },
    {
      "inputs": [
        {
          "internalType": "uint256",
          "name": "_productId",
          "type": "uint256"
        },
        {
          "internalType": "uint256",
          "name": "_newPrice",
          "type": "uint256"
        },
        {
          "internalType": "uint256",
          "name": "_newQuantity",
          "type": "uint256"
        }
      ],
      "name": "updateProduct",
      "outputs": [],
      "stateMutability": "nonpayable",
      "type": "function"
    }
  ],
  "bytecode": "0x6080604052348015600f57600080fd5b50610fb28061001f6000396000f3fe6080604052600436106100705760003560e01c8063b9db15b41161004e578063b9db15b4146100e5578063be126a9414610117578063e0f6ef8714610137578063f85292ca1461014d57600080fd5b806321235a1b146100755780637acc0b201461009d578063a0440426146100d0575b600080fd5b34801561008157600080fd5b5061008a61016d565b6040519081526020015b60405180910390f35b3480156100a957600080fd5b506100bd6100b8366004610ad3565b6101c0565b6040516100949796959493929190610b32565b6100e36100de366004610b8f565b61031c565b005b3480156100f157600080fd5b50610105610100366004610ad3565b61054a565b60405161009496959493929190610bb1565b34801561012357600080fd5b5061008a610132366004610cac565b610780565b34801561014357600080fd5b5061008a60015481565b34801561015957600080fd5b506100e3610168366004610d25565b610943565b600060015b60015481116101bc57600081815260208190526040902060050154600160a01b900460ff16156101aa57816101a681610d67565b9250505b806101b481610d67565b915050610172565b5090565b600060208190529081526040902080546001820180549192916101e290610d80565b80601f016020809104026020016040519081016040528092919081815260200182805461020e90610d80565b801561025b5780601f106102305761010080835404028352916020019161025b565b820191906000526020600020905b81548152906001019060200180831161023e57829003601f168201915b50505050509080600201805461027090610d80565b80601f016020809104026020016040519081016040528092919081815260200182805461029c90610d80565b80156102e95780601f106102be576101008083540402835291602001916102e9565b820191906000526020600020905b8154815290600101906020018083116102cc57829003601f168201915b5050505060038301546004840154600590940154929390929091506001600160a01b03811690600160a01b900460ff1687565b8160008111801561032f57506001548111155b6103545760405162461bcd60e51b815260040161034b90610dba565b60405180910390fd5b600081815260208190526040902060050154600160a01b900460ff1661038c5760405162461bcd60e51b815260040161034b90610dea565b6000838152602081905260409020826103e75760405162461bcd60e51b815260206004820152601f60248201527f5175616e74697479206d7573742062652067726561746572207468616e203000604482015260640161034b565b806004015483111561043b5760405162461bcd60e51b815260206004820152601d60248201527f4e6f7420656e6f756768207175616e7469747920617661696c61626c65000000604482015260640161034b565b82816003015461044b9190610e19565b3410156104915760405162461bcd60e51b8152602060048201526014602482015273125b9cdd59999a58da595b9d081c185e5b595b9d60621b604482015260640161034b565b828160040160008282546104a59190610e36565b909155505060058101546040516001600160a01b03909116903480156108fc02916000818181858888f193505050501580156104e5573d6000803e3d6000fd5b5060408051338152602081018590523481830152905185917f1996dfdf9a942c2ec8fc8b5da7010c303a8b65bc587a754469c06cdc0d09236f919081900360600190a280600401546000036105445760058101805460ff60a01b191690555b50505050565b6060806000806000808660008111801561056657506001548111155b6105825760405162461bcd60e51b815260040161034b90610dba565b600081815260208190526040902060050154600160a01b900460ff166105ba5760405162461bcd60e51b815260040161034b90610dea565b60008060008a81526020019081526020016000206040518060e0016040529081600082015481526020016001820180546105f390610d80565b80601f016020809104026020016040519081016040528092919081815260200182805461061f90610d80565b801561066c5780601f106106415761010080835404028352916020019161066c565b820191906000526020600020905b81548152906001019060200180831161064f57829003601f168201915b5050505050815260200160028201805461068590610d80565b80601f01602080910402602001604051908101604052809291908181526020018280546106b190610d80565b80156106fe5780601f106106d3576101008083540402835291602001916106fe565b820191906000526020600020905b8154815290600101906020018083116106e157829003601f168201915b5050509183525050600382015460208083019190915260048301546040808401919091526005909301546001600160a01b038116606080850191909152600160a01b90910460ff1615156080938401529084015192840151908401519184015160a085015160c090950151939e919d50919b5090995091975095509350505050565b60008083116107d15760405162461bcd60e51b815260206004820152601c60248201527f5072696365206d7573742062652067726561746572207468616e203000000000604482015260640161034b565b600082116108215760405162461bcd60e51b815260206004820152601f60248201527f5175616e74697479206d7573742062652067726561746572207468616e203000604482015260640161034b565b6001805490600061083183610d67565b90915550506040805160e0810182526001805480835260208084018a81528486018a905260608501899052608085018890523360a086015260c08501849052600092835290829052939020825181559251919291908201906108939082610e98565b50604082015160028201906108a89082610e98565b50606082015160038201556080820151600482015560a08201516005909101805460c0909301511515600160a01b026001600160a81b03199093166001600160a01b03909216919091179190911790556001546040517f350caed69242d5b4c8b2d2142a7fde952dd71ffe0c9f16037c5b79826d7a82c49061092f90889087908790610f57565b60405180910390a250600154949350505050565b60008381526020819052604090206005015483906001600160a01b031633146109a65760405162461bcd60e51b81526020600482015260156024820152742737ba103a343290383937b23ab1ba1037bbb732b960591b604482015260640161034b565b836000811180156109b957506001548111155b6109d55760405162461bcd60e51b815260040161034b90610dba565b600081815260208190526040902060050154600160a01b900460ff16610a0d5760405162461bcd60e51b815260040161034b90610dea565b60008411610a5d5760405162461bcd60e51b815260206004820152601c60248201527f5072696365206d7573742062652067726561746572207468616e203000000000604482015260640161034b565b6000858152602081905260409020600381018590558315610a8057600481018490555b857fc598db734b93c7fd9412e07c1e464ebb4d3dcf9b02c03af26710b307f8b773db82600401548360030154604051610ac3929190918252602082015260400190565b60405180910390a2505050505050565b600060208284031215610ae557600080fd5b5035919050565b6000815180845260005b81811015610b1257602081850181015186830182015201610af6565b506000602082860101526020601f19601f83011685010191505092915050565b87815260e060208201526000610b4b60e0830189610aec565b8281036040840152610b5d8189610aec565b6060840197909752505060808101939093526001600160a01b039190911660a0830152151560c0909101529392505050565b60008060408385031215610ba257600080fd5b50508035926020909101359150565b60c081526000610bc460c0830189610aec565b8281036020840152610bd68189610aec565b6040840197909752505060608101939093526001600160a01b03919091166080830152151560a09091015292915050565b634e487b7160e01b600052604160045260246000fd5b600082601f830112610c2e57600080fd5b813567ffffffffffffffff811115610c4857610c48610c07565b604051601f8201601f19908116603f0116810167ffffffffffffffff81118282101715610c7757610c77610c07565b604052818152838201602001851015610c8f57600080fd5b816020850160208301376000918101602001919091529392505050565b60008060008060808587031215610cc257600080fd5b843567ffffffffffffffff811115610cd957600080fd5b610ce587828801610c1d565b945050602085013567ffffffffffffffff811115610d0257600080fd5b610d0e87828801610c1d565b949794965050505060408301359260600135919050565b600080600060608486031215610d3a57600080fd5b505081359360208301359350604090920135919050565b634e487b7160e01b600052601160045260246000fd5b600060018201610d7957610d79610d51565b5060010190565b600181811c90821680610d9457607f821691505b602082108103610db457634e487b7160e01b600052602260045260246000fd5b50919050565b602080825260169082015275141c9bd91d58dd08191bd95cc81b9bdd08195e1a5cdd60521b604082015260600190565b60208082526015908201527450726f64756374206973206e6f742061637469766560581b604082015260600190565b8082028115828204841417610e3057610e30610d51565b92915050565b81810381811115610e3057610e30610d51565b601f821115610e9357806000526020600020601f840160051c81016020851015610e705750805b601f840160051c820191505b81811015610e905760008155600101610e7c565b50505b505050565b815167ffffffffffffffff811115610eb257610eb2610c07565b610ec681610ec08454610d80565b84610e49565b6020601f821160018114610efa5760008315610ee25750848201515b600019600385901b1c1916600184901b178455610e90565b600084815260208120601f198516915b82811015610f2a5787850151825560209485019460019092019101610f0a565b5084821015610f485786840151600019600387901b60f8161c191681555b50505050600190811b01905550565b606081526000610f6a6060830186610aec565b6020830194909452506040015291905056fea2646970667358221220f5f89d13cb1084c63954a8d34eae21e74e5b778d6f6f17c5f23c3e33c87bca7464736f6c634300081c0033",
  "linkReferences": {},
  "deployedLinkReferences": {}
}